8=FIX.4.4|9=113|35=A|34=1|49=Q006|52=20220602-09:59:02.000|56=XCD24|98=0|108=60|141=Y|553=primexm_Test_Client_q|554=wvgdMcmsui8j|10=140|8=FIX.4.4|9=92|35=V|34=2|49=Q006|52=20220602-09:59:12.000|56=XCD24|262=0|263=1|264=0|265=1|146=1|55=EURUSD|10=212|8=FIX.4.4|9=92|35=V|34=3|49=Q006|52=20220602-09:59:12.000|56=XCD24|262=1|263=1|264=0|265=1|146=1|55=XAUUSD|10=216|8=FIX.4.4|9=58|35=b|34=4|49=Q006|52=20220602-09:59:13.000|56=XCD24|117=1|10=059|8=FIX.4.4|9=58|35=b|34=5|49=Q006|52=20220602-09:59:14.000|56=XCD24|117=2|10=062|8=FIX.4.4|9=58|35=b|34=6|49=Q006|52=20220602-09:59:15.000|56=XCD24|117=3|10=065|8=FIX.4.4|9=58|35=b|34=7|49=Q006|52=20220602-09:59:16.000|56=XCD24|117=4|10=068|8=FIX.4.4|9=58|35=b|34=8|49=Q006|52=20220602-09:59:17.000|56=XCD24|117=5|10=071|8=FIX.4.4|9=58|35=b|34=9|49=Q006|52=20220602-09:59:18.000|56=XCD24|117=6|10=074|8=FIX.4.4|9=59|35=b|34=10|49=Q006|52=20220602-09:59:19.000|56=XCD24|117=7|10=117|8=FIX.4.4|9=59|35=b|34=11|49=Q006|52=20220602-09:59:20.000|56=XCD24|117=8|10=111|8=FIX.4.4|9=59|35=b|34=12|49=Q006|52=20220602-09:59:21.000|56=XCD24|117=9|10=114|