8=FIX.4.4|9=118|35=A|34=1|49=T006|52=20220529-13:39:02.000|56=XCD24|1=main_STP|98=0|108=60|553=primexm_Test_Client_t|554=Tqs7E6sHd3bs|10=030|8=FIX.4.4|9=118|35=A|34=2|49=T006|52=20220529-13:39:12.000|56=XCD24|1=main_STP|98=0|108=60|553=primexm_Test_Client_t|554=Tqs7E6sHd3bs|10=032|8=FIX.4.4|9=131|35=D|34=3|49=T006|52=20220529-13:39:14.000|56=XCD24|1=main_STP|11=1|38=1000|40=1|54=1|55=EURUSD|60=20220529-13:39:14.000|10000=300|10=161|8=FIX.4.4|9=118|35=A|34=4|49=T006|52=20220529-13:39:50.000|56=XCD24|1=main_STP|98=0|108=60|553=primexm_Test_Client_t|554=Tqs7E6sHd3bs|10=036|8=FIX.4.4|9=118|35=A|34=5|49=T006|52=20220529-13:40:00.000|56=XCD24|1=main_STP|98=0|108=60|553=primexm_Test_Client_t|554=Tqs7E6sHd3bs|10=024|8=FIX.4.4|9=128|35=D|34=6|49=T006|52=20220529-13:40:01.000|56=XCD24|1=main_STP|11=1|38=1|40=1|54=1|55=EURUSD|60=20220529-13:40:01.000|10000=300|10=002|8=FIX.4.4|9=118|35=A|34=7|49=T006|52=20220529-13:42:46.000|56=XCD24|1=main_STP|98=0|108=60|553=primexm_Test_Client_t|554=Tqs7E6sHd3bs|10=038|8=FIX.4.4|9=61|35=2|34=8|49=T006|52=20220529-13:42:46.000|56=XCD24|7=1|16=0|10=128|8=FIX.4.4|9=99|35=3|34=9|49=T006|52=20220529-13:42:47.000|56=XCD24|45=4|58=Required tag missing|371=6|372=8|373=1|10=125|8=FIX.4.4|9=129|35=D|34=10|49=T006|52=20220529-13:42:48.000|56=XCD24|1=main_STP|11=1|38=1|40=1|54=1|55=EURUSD|60=20220529-13:42:48.000|10000=300|10=072|8=FIX.4.4|9=100|35=3|34=11|49=T006|52=20220529-13:42:48.000|56=XCD24|45=9|58=Required tag missing|371=6|372=8|373=1|10=203|8=FIX.4.4|9=129|35=D|34=12|49=T006|52=20220602-09:48:39.000|56=XCD24|1=main_STP|11=1|38=1|40=1|54=1|55=EURUSD|60=20220602-09:48:39.000|10000=300|10=080|8=FIX.4.4|9=119|35=A|34=13|49=T006|52=20220602-09:49:02.000|56=XCD24|1=main_STP|98=0|108=60|553=primexm_Test_Client_t|554=Tqs7E6sHd3bs|10=080|8=FIX.4.4|9=129|35=D|34=14|49=T006|52=20220602-09:49:03.000|56=XCD24|1=main_STP|11=1|38=1|40=1|54=1|55=EURUSD|60=20220602-09:49:03.000|10000=300|10=066|8=FIX.4.4|9=101|35=3|34=15|49=T006|52=20220602-09:49:03.000|56=XCD24|45=12|58=Required tag missing|371=6|372=8|373=1|10=245|8=FIX.4.4|9=119|35=A|34=16|49=T006|52=20220602-09:54:42.000|56=XCD24|1=main_STP|98=0|108=60|553=primexm_Test_Client_t|554=Tqs7E6sHd3bs|10=083|8=FIX.4.4|9=119|35=A|34=17|49=T006|52=20220602-09:54:52.000|56=XCD24|1=main_STP|98=0|108=60|553=primexm_Test_Client_t|554=Tqs7E6sHd3bs|10=085|8=FIX.4.4|9=129|35=D|34=18|49=T006|52=20220602-09:54:53.000|56=XCD24|1=main_STP|11=1|38=1|40=1|54=1|55=EURUSD|60=20220602-09:54:53.000|10000=300|10=072|8=FIX.4.4|9=119|35=A|34=19|49=T006|52=20220602-09:55:02.000|56=XCD24|1=main_STP|98=0|108=60|553=primexm_Test_Client_t|554=Tqs7E6sHd3bs|10=083|8=FIX.4.4|9=63|35=2|34=20|49=T006|52=20220602-09:55:02.000|56=XCD24|7=14|16=0|10=217|8=FIX.4.4|9=129|35=D|34=21|49=T006|52=20220602-09:55:04.000|56=XCD24|1=main_STP|11=1|38=1|40=1|54=1|55=EURUSD|60=20220602-09:55:04.000|10000=300|10=060|8=FIX.4.4|9=101|35=3|34=22|49=T006|52=20220602-09:55:04.000|56=XCD24|45=16|58=Required tag missing|371=6|372=8|373=1|10=245|8=FIX.4.4|9=119|35=A|34=23|49=T006|52=20220602-09:55:26.000|56=XCD24|1=main_STP|98=0|108=60|553=primexm_Test_Client_t|554=Tqs7E6sHd3bs|10=084|8=FIX.4.4|9=129|35=D|34=24|49=T006|52=20220602-09:55:28.000|56=XCD24|1=main_STP|11=1|38=1|40=1|54=1|55=EURUSD|60=20220602-09:55:28.000|10000=300|10=075|8=FIX.4.4|9=101|35=3|34=25|49=T006|52=20220602-09:55:28.000|56=XCD24|45=19|58=Required tag missing|371=6|372=8|373=1|10=001|8=FIX.4.4|9=53|35=0|34=26|49=T006|52=20220602-09:56:28.000|56=XCD24|10=054|8=FIX.4.4|9=53|35=0|34=27|49=T006|52=20220602-09:57:28.000|56=XCD24|10=056|8=FIX.4.4|9=62|35=1|34=28|49=T006|52=20220602-09:57:41.000|56=XCD24|112=TEST|10=071|8=FIX.4.4|9=53|35=0|34=29|49=T006|52=20220602-09:58:41.000|56=XCD24|10=054|8=FIX.4.4|9=119|35=A|34=30|49=T006|52=20220602-09:59:02.000|56=XCD24|1=main_STP|98=0|108=60|553=primexm_Test_Client_t|554=Tqs7E6sHd3bs|10=080|8=FIX.4.4|9=119|35=A|34=31|49=T006|52=20220602-09:59:12.000|56=XCD24|1=main_STP|98=0|108=60|553=primexm_Test_Client_t|554=Tqs7E6sHd3bs|10=082|8=FIX.4.4|9=129|35=D|34=32|49=T006|52=20220602-09:59:13.000|56=XCD24|1=main_STP|11=1|38=1|40=1|54=1|55=EURUSD|60=20220602-09:59:13.000|10000=300|10=070|