8=FIX.4.4|9=118|35=A|34=1|49=T006|52=20220526-03:52:00.000|56=XCD24|1=main_STP|98=0|108=60|553=primexm_Test_Client_T|554=Tqs7E6sHd3bs|10=243|8=FIX.4.4|9=52|35=5|34=2|49=T006|52=20220526-03:52:00.000|56=XCD24|10=245|8=FIX.4.4|9=118|35=A|34=3|49=T006|52=20220526-03:52:00.000|56=XCD24|1=main_STP|98=0|108=60|553=primexm_Test_Client_T|554=Tqs7E6sHd3bs|10=245|