8=FIX.4.4|9=121|35=A|34=1|49=T006|52=20220526-03:55:49.000|56=FIXORDER|1=main_STP|98=0|108=60|553=primexm_Test_Client_T|554=Tqs7E6sHd3bs|10=027|8=FIX.4.4|9=121|35=A|34=2|49=T006|52=20220526-03:55:59.000|56=FIXORDER|1=main_STP|98=0|108=60|553=primexm_Test_Client_T|554=Tqs7E6sHd3bs|10=029|8=FIX.4.4|9=134|35=D|34=3|49=T006|52=20220526-03:56:00.000|56=FIXORDER|1=main_STP|11=1|38=1000|40=1|54=1|55=EURUSD|60=20220526-03:56:00.000|10000=300|10=174|